{
  "_format": "hh-sol-artifact-1",
  "contractName": "CertificateNFT",
  "sourceName": "contracts/certificateNFT.sol",
  "abi": [
    {
      "inputs": [],
      "stateMutability": "nonpayable",
      "type": "constructor"
    },
    {
      "inputs": [
        {
          "internalType": "address",
          "name": "sender",
          "type": "address"
        },
        {
          "internalType": "uint256",
          "name": "tokenId",
          "type": "uint256"
        },
        {
          "internalType": "address",
          "name": "owner",
          "type": "address"
        }
      ],
      "name": "ERC721IncorrectOwner",
      "type": "error"
    },
    {
      "inputs": [
        {
          "internalType": "address",
          "name": "operator",
          "type": "address"
        },
        {
          "internalType": "uint256",
          "name": "tokenId",
          "type": "uint256"
        }
      ],
      "name": "ERC721InsufficientApproval",
      "type": "error"
    },
    {
      "inputs": [
        {
          "internalType": "address",
          "name": "approver",
          "type": "address"
        }
      ],
      "name": "ERC721InvalidApprover",
      "type": "error"
    },
    {
      "inputs": [
        {
          "internalType": "address",
          "name": "operator",
          "type": "address"
        }
      ],
      "name": "ERC721InvalidOperator",
      "type": "error"
    },
    {
      "inputs": [
        {
          "internalType": "address",
          "name": "owner",
          "type": "address"
        }
      ],
      "name": "ERC721InvalidOwner",
      "type": "error"
    },
    {
      "inputs": [
        {
          "internalType": "address",
          "name": "receiver",
          "type": "address"
        }
      ],
      "name": "ERC721InvalidReceiver",
      "type": "error"
    },
    {
      "inputs": [
        {
          "internalType": "address",
          "name": "sender",
          "type": "address"
        }
      ],
      "name": "ERC721InvalidSender",
      "type": "error"
    },
    {
      "inputs": [
        {
          "internalType": "uint256",
          "name": "tokenId",
          "type": "uint256"
        }
      ],
      "name": "ERC721NonexistentToken",
      "type": "error"
    },
    {
      "inputs": [
        {
          "internalType": "address",
          "name": "owner",
          "type": "address"
        }
      ],
      "name": "OwnableInvalidOwner",
      "type": "error"
    },
    {
      "inputs": [
        {
          "internalType": "address",
          "name": "account",
          "type": "address"
        }
      ],
      "name": "OwnableUnauthorizedAccount",
      "type": "error"
    },
    {
      "anonymous": false,
      "inputs": [
        {
          "indexed": true,
          "internalType": "address",
          "name": "owner",
          "type": "address"
        },
        {
          "indexed": true,
          "internalType": "address",
          "name": "approved",
          "type": "address"
        },
        {
          "indexed": true,
          "internalType": "uint256",
          "name": "tokenId",
          "type": "uint256"
        }
      ],
      "name": "Approval",
      "type": "event"
    },
    {
      "anonymous": false,
      "inputs": [
        {
          "indexed": true,
          "internalType": "address",
          "name": "owner",
          "type": "address"
        },
        {
          "indexed": true,
          "internalType": "address",
          "name": "operator",
          "type": "address"
        },
        {
          "indexed": false,
          "internalType": "bool",
          "name": "approved",
          "type": "bool"
        }
      ],
      "name": "ApprovalForAll",
      "type": "event"
    },
    {
      "anonymous": false,
      "inputs": [
        {
          "indexed": false,
          "internalType": "uint256",
          "name": "_fromTokenId",
          "type": "uint256"
        },
        {
          "indexed": false,
          "internalType": "uint256",
          "name": "_toTokenId",
          "type": "uint256"
        }
      ],
      "name": "BatchMetadataUpdate",
      "type": "event"
    },
    {
      "anonymous": false,
      "inputs": [
        {
          "indexed": true,
          "internalType": "address",
          "name": "recipient",
          "type": "address"
        },
        {
          "indexed": true,
          "internalType": "uint256",
          "name": "tokenId",
          "type": "uint256"
        },
        {
          "indexed": false,
          "internalType": "string",
          "name": "metadataURI",
          "type": "string"
        }
      ],
      "name": "CertificateMinted",
      "type": "event"
    },
    {
      "anonymous": false,
      "inputs": [
        {
          "indexed": false,
          "internalType": "uint256",
          "name": "_tokenId",
          "type": "uint256"
        }
      ],
      "name": "MetadataUpdate",
      "type": "event"
    },
    {
      "anonymous": false,
      "inputs": [
        {
          "indexed": true,
          "internalType": "address",
          "name": "previousOwner",
          "type": "address"
        },
        {
          "indexed": true,
          "internalType": "address",
          "name": "newOwner",
          "type": "address"
        }
      ],
      "name": "OwnershipTransferred",
      "type": "event"
    },
    {
      "anonymous": false,
      "inputs": [
        {
          "indexed": true,
          "internalType": "address",
          "name": "from",
          "type": "address"
        },
        {
          "indexed": true,
          "internalType": "address",
          "name": "to",
          "type": "address"
        },
        {
          "indexed": true,
          "internalType": "uint256",
          "name": "tokenId",
          "type": "uint256"
        }
      ],
      "name": "Transfer",
      "type": "event"
    },
    {
      "inputs": [
        {
          "internalType": "address",
          "name": "to",
          "type": "address"
        },
        {
          "internalType": "uint256",
          "name": "tokenId",
          "type": "uint256"
        }
      ],
      "name": "approve",
      "outputs": [],
      "stateMutability": "nonpayable",
      "type": "function"
    },
    {
      "inputs": [
        {
          "internalType": "address",
          "name": "owner",
          "type": "address"
        }
      ],
      "name": "balanceOf",
      "outputs": [
        {
          "internalType": "uint256",
          "name": "",
          "type": "uint256"
        }
      ],
      "stateMutability": "view",
      "type": "function"
    },
    {
      "inputs": [
        {
          "internalType": "uint256",
          "name": "",
          "type": "uint256"
        }
      ],
      "name": "certificates",
      "outputs": [
        {
          "internalType": "uint256",
          "name": "id",
          "type": "uint256"
        },
        {
          "internalType": "bool",
          "name": "isVerified",
          "type": "bool"
        }
      ],
      "stateMutability": "view",
      "type": "function"
    },
    {
      "inputs": [
        {
          "internalType": "uint256",
          "name": "tokenId",
          "type": "uint256"
        }
      ],
      "name": "getApproved",
      "outputs": [
        {
          "internalType": "address",
          "name": "",
          "type": "address"
        }
      ],
      "stateMutability": "view",
      "type": "function"
    },
    {
      "inputs": [
        {
          "internalType": "uint256",
          "name": "tokenId",
          "type": "uint256"
        }
      ],
      "name": "getCertificateIssuer",
      "outputs": [
        {
          "internalType": "address",
          "name": "",
          "type": "address"
        }
      ],
      "stateMutability": "view",
      "type": "function"
    },
    {
      "inputs": [
        {
          "internalType": "uint256",
          "name": "tokenId",
          "type": "uint256"
        }
      ],
      "name": "getCertificateOwner",
      "outputs": [
        {
          "internalType": "address",
          "name": "",
          "type": "address"
        }
      ],
      "stateMutability": "view",
      "type": "function"
    },
    {
      "inputs": [
        {
          "internalType": "address",
          "name": "owner",
          "type": "address"
        },
        {
          "internalType": "address",
          "name": "operator",
          "type": "address"
        }
      ],
      "name": "isApprovedForAll",
      "outputs": [
        {
          "internalType": "bool",
          "name": "",
          "type": "bool"
        }
      ],
      "stateMutability": "view",
      "type": "function"
    },
    {
      "inputs": [
        {
          "internalType": "address",
          "name": "recipient",
          "type": "address"
        },
        {
          "internalType": "string",
          "name": "metadataURI",
          "type": "string"
        }
      ],
      "name": "mintCertificate",
      "outputs": [],
      "stateMutability": "nonpayable",
      "type": "function"
    },
    {
      "inputs": [],
      "name": "name",
      "outputs": [
        {
          "internalType": "string",
          "name": "",
          "type": "string"
        }
      ],
      "stateMutability": "view",
      "type": "function"
    },
    {
      "inputs": [],
      "name": "owner",
      "outputs": [
        {
          "internalType": "address",
          "name": "",
          "type": "address"
        }
      ],
      "stateMutability": "view",
      "type": "function"
    },
    {
      "inputs": [
        {
          "internalType": "uint256",
          "name": "tokenId",
          "type": "uint256"
        }
      ],
      "name": "ownerOf",
      "outputs": [
        {
          "internalType": "address",
          "name": "",
          "type": "address"
        }
      ],
      "stateMutability": "view",
      "type": "function"
    },
    {
      "inputs": [],
      "name": "renounceOwnership",
      "outputs": [],
      "stateMutability": "nonpayable",
      "type": "function"
    },
    {
      "inputs": [
        {
          "internalType": "address",
          "name": "from",
          "type": "address"
        },
        {
          "internalType": "address",
          "name": "to",
          "type": "address"
        },
        {
          "internalType": "uint256",
          "name": "tokenId",
          "type": "uint256"
        }
      ],
      "name": "safeTransferFrom",
      "outputs": [],
      "stateMutability": "nonpayable",
      "type": "function"
    },
    {
      "inputs": [
        {
          "internalType": "address",
          "name": "from",
          "type": "address"
        },
        {
          "internalType": "address",
          "name": "to",
          "type": "address"
        },
        {
          "internalType": "uint256",
          "name": "tokenId",
          "type": "uint256"
        },
        {
          "internalType": "bytes",
          "name": "data",
          "type": "bytes"
        }
      ],
      "name": "safeTransferFrom",
      "outputs": [],
      "stateMutability": "nonpayable",
      "type": "function"
    },
    {
      "inputs": [
        {
          "internalType": "address",
          "name": "operator",
          "type": "address"
        },
        {
          "internalType": "bool",
          "name": "approved",
          "type": "bool"
        }
      ],
      "name": "setApprovalForAll",
      "outputs": [],
      "stateMutability": "nonpayable",
      "type": "function"
    },
    {
      "inputs": [
        {
          "internalType": "bytes4",
          "name": "interfaceId",
          "type": "bytes4"
        }
      ],
      "name": "supportsInterface",
      "outputs": [
        {
          "internalType": "bool",
          "name": "",
          "type": "bool"
        }
      ],
      "stateMutability": "view",
      "type": "function"
    },
    {
      "inputs": [],
      "name": "symbol",
      "outputs": [
        {
          "internalType": "string",
          "name": "",
          "type": "string"
        }
      ],
      "stateMutability": "view",
      "type": "function"
    },
    {
      "inputs": [
        {
          "internalType": "uint256",
          "name": "tokenId",
          "type": "uint256"
        }
      ],
      "name": "tokenURI",
      "outputs": [
        {
          "internalType": "string",
          "name": "",
          "type": "string"
        }
      ],
      "stateMutability": "view",
      "type": "function"
    },
    {
      "inputs": [
        {
          "internalType": "address",
          "name": "from",
          "type": "address"
        },
        {
          "internalType": "address",
          "name": "to",
          "type": "address"
        },
        {
          "internalType": "uint256",
          "name": "tokenId",
          "type": "uint256"
        }
      ],
      "name": "transferFrom",
      "outputs": [],
      "stateMutability": "nonpayable",
      "type": "function"
    },
    {
      "inputs": [
        {
          "internalType": "address",
          "name": "newOwner",
          "type": "address"
        }
      ],
      "name": "transferOwnership",
      "outputs": [],
      "stateMutability": "nonpayable",
      "type": "function"
    },
    {
      "inputs": [
        {
          "internalType": "uint256",
          "name": "certificateId",
          "type": "uint256"
        }
      ],
      "name": "verifyCertificate",
      "outputs": [
        {
          "internalType": "bool",
          "name": "",
          "type": "bool"
        }
      ],
      "stateMutability": "view",
      "type": "function"
    }
  ],
  "bytecode": "0x6080604052600060085534801561001557600080fd5b50336040518060400160405280600e81526020017f43657274696669636174654e46540000000000000000000000000000000000008152506040518060400160405280600481526020017f434552540000000000000000000000000000000000000000000000000000000081525081600090816100929190610442565b5080600190816100a29190610442565b505050600073ffffffffffffffffffffffffffffffffffffffff168173ffffffffffffffffffffffffffffffffffffffff16036101175760006040517f1e4fbdf700000000000000000000000000000000000000000000000000000000815260040161010e9190610555565b60405180910390fd5b6101268161012c60201b60201c565b50610570565b6000600760009054906101000a900473ffffffffffffffffffffffffffffffffffffffff16905081600760006101000a81548173ffffffffffffffffffffffffffffffffffffffff021916908373ffffffffffffffffffffffffffffffffffffffff1602179055508173ffffffffffffffffffffffffffffffffffffffff168173ffffffffffffffffffffffffffffffffffffffff167f8be0079c531659141344cd1fd0a4f28419497f9722a3daafe3b4186f6b6457e060405160405180910390a35050565b600081519050919050565b7f4e487b7100000000000000000000000000000000000000000000000000000000600052604160045260246000fd5b7f4e487b7100000000000000000000000000000000000000000000000000000000600052602260045260246000fd5b6000600282049050600182168061027357607f821691505b6020821081036102865761028561022c565b5b50919050565b60008190508160005260206000209050919050565b60006020601f8301049050919050565b600082821b905092915050565b6000600883026102ee7fffffffffffffffffffffffffffffffffffffffffffffffffffffffffffffffff826102b1565b6102f886836102b1565b95508019841693508086168417925050509392505050565b6000819050919050565b6000819050919050565b600061033f61033a61033584610310565b61031a565b610310565b9050919050565b6000819050919050565b61035983610324565b61036d61036582610346565b8484546102be565b825550505050565b600090565b610382610375565b61038d818484610350565b505050565b5b818110156103b1576103a660008261037a565b600181019050610393565b5050565b601f8211156103f6576103c78161028c565b6103d0846102a1565b810160208510156103df578190505b6103f36103eb856102a1565b830182610392565b50505b505050565b600082821c905092915050565b6000610419600019846008026103fb565b1980831691505092915050565b60006104328383610408565b9150826002028217905092915050565b61044b826101f2565b67ffffffffffffffff811115610464576104636101fd565b5b61046e825461025b565b6104798282856103b5565b600060209050601f8311600181146104ac576000841561049a578287015190505b6104a48582610426565b86555061050c565b601f1984166104ba8661028c565b60005b828110156104e2578489015182556001820191506020850194506020810190506104bd565b868310156104ff57848901516104fb601f891682610408565b8355505b6001600288020188555050505b505050505050565b600073ffffffffffffffffffffffffffffffffffffffff82169050919050565b600061053f82610514565b9050919050565b61054f81610534565b82525050565b600060208201905061056a6000830184610546565b92915050565b612dec8061057f6000396000f3fe608060405234801561001057600080fd5b50600436106101375760003560e01c8063663b3e22116100b857806395d89b411161007c57806395d89b4114610373578063a22cb46514610391578063b88d4fde146103ad578063c87b56dd146103c9578063e985e9c5146103f9578063f2fde38b1461042957610137565b8063663b3e22146102ba57806370a08231146102eb578063715018a61461031b57806384e814ef146103255780638da5cb5b1461035557610137565b80631692a942116100ff5780631692a942146101f257806323b872dd1461022257806342842e0e1461023e5780635d193b9d1461025a5780636352211e1461028a57610137565b806301ffc9a71461013c57806306fdde031461016c5780630712249f1461018a578063081812fc146101a6578063095ea7b3146101d6575b600080fd5b610156600480360381019061015191906120e9565b610445565b6040516101639190612131565b60405180910390f35b6101746104a6565b60405161018191906121dc565b60405180910390f35b6101a4600480360381019061019f9190612391565b610538565b005b6101c060048036038101906101bb9190612423565b610715565b6040516101cd919061245f565b60405180910390f35b6101f060048036038101906101eb919061247a565b610731565b005b61020c60048036038101906102079190612423565b610747565b6040516102199190612131565b60405180910390f35b61023c600480360381019061023791906124ba565b6107cc565b005b610258600480360381019061025391906124ba565b6108ce565b005b610274600480360381019061026f9190612423565b6108ee565b604051610281919061245f565b60405180910390f35b6102a4600480360381019061029f9190612423565b6109a1565b6040516102b1919061245f565b60405180910390f35b6102d460048036038101906102cf9190612423565b6109b3565b6040516102e292919061251c565b60405180910390f35b61030560048036038101906103009190612545565b6109e4565b6040516103129190612572565b60405180910390f35b610323610a9e565b005b61033f600480360381019061033a9190612423565b610ab2565b60405161034c919061245f565b60405180910390f35b61035d610ac4565b60405161036a919061245f565b60405180910390f35b61037b610aee565b60405161038891906121dc565b60405180910390f35b6103ab60048036038101906103a691906125b9565b610b80565b005b6103c760048036038101906103c2919061269a565b610b96565b005b6103e360048036038101906103de9190612423565b610bbb565b6040516103f091906121dc565b60405180910390f35b610413600480360381019061040e919061271d565b610cce565b6040516104209190612131565b60405180910390f35b610443600480360381019061043e9190612545565b610d62565b005b6000634906490660e01b7bffffffffffffffffffffffffffffffffffffffffffffffffffffffff1916827bffffffffffffffffffffffffffffffffffffffffffffffffffffffff1916148061049f575061049e82610de8565b5b9050919050565b6060600080546104b59061278c565b80601f01602080910402602001604051908101604052809291908181526020018280546104e19061278c565b801561052e5780601f106105035761010080835404028352916020019161052e565b820191906000526020600020905b81548152906001019060200180831161051157829003601f168201915b5050505050905090565b610540610eca565b60086000815480929190610553906127ec565b9190505550600060085490506105698382610f51565b6105738183610f6f565b336009600083815260200190815260200160002060006101000a81548173ffffffffffffffffffffffffffffffffffffffff021916908373ffffffffffffffffffffffffffffffffffffffff1602179055506106046040518060400160405280600e81526020017f4d696e746564204e465420746f3a00000000000000000000000000000000000081525084610fcb565b6106436040518060400160405280600981526020017f546f6b656e2049443a000000000000000000000000000000000000000000000081525082611067565b6106826040518060400160405280600d81526020017f4d65746164617461205552493a0000000000000000000000000000000000000081525083611103565b6106c16040518060400160405280600781526020017f4973737565723a0000000000000000000000000000000000000000000000000081525033610fcb565b808373ffffffffffffffffffffffffffffffffffffffff167fde5d6fd45e32fffb472bcbaeedf6a2e3944633c9701eec7d99adfa07ad6104c18460405161070891906121dc565b60405180910390a3505050565b60006107208261119f565b5061072a82611227565b9050919050565b610743828261073e611264565b61126c565b5050565b600080600a600084815260200190815260200160002060000154036107a1576040517f08c379a000000000000000000000000000000000000000000000000000000000815260040161079890612880565b60405180910390fd5b600a600083815260200190815260200160002060010160009054906101000a900460ff169050919050565b600073ffffffffffffffffffffffffffffffffffffffff168273ffffffffffffffffffffffffffffffffffffffff160361083e5760006040517f64a0ae92000000000000000000000000000000000000000000000000000000008152600401610835919061245f565b60405180910390fd5b6000610852838361084d611264565b61127e565b90508373ffffffffffffffffffffffffffffffffffffffff168173ffffffffffffffffffffffffffffffffffffffff16146108c8578382826040517f64283d7b0000000000000000000000000000000000000000000000000000000081526004016108bf939291906128a0565b60405180910390fd5b50505050565b6108e983838360405180602001604052806000815250610b96565b505050565b60008073ffffffffffffffffffffffffffffffffffffffff16610910836109a1565b73ffffffffffffffffffffffffffffffffffffffff1603610966576040517f08c379a000000000000000000000000000000000000000000000000000000000815260040161095d90612880565b60405180910390fd5b6009600083815260200190815260200160002060009054906101000a900473ffffffffffffffffffffffffffffffffffffffff169050919050565b60006109ac8261119f565b9050919050565b600a6020528060005260406000206000915090508060000154908060010160009054906101000a900460ff16905082565b60008073ffffffffffffffffffffffffffffffffffffffff168273ffffffffffffffffffffffffffffffffffffffff1603610a575760006040517f89c62b64000000000000000000000000000000000000000000000000000000008152600401610a4e919061245f565b60405180910390fd5b600360008373ffffffffffffffffffffffffffffffffffffffff1673ffffffffffffffffffffffffffffffffffffffff168152602001908152602001600020549050919050565b610aa6610eca565b610ab06000611498565b565b6000610abd826109a1565b9050919050565b6000600760009054906101000a900473ffffffffffffffffffffffffffffffffffffffff16905090565b606060018054610afd9061278c565b80601f0160208091040260200160405190810160405280929190818152602001828054610b299061278c565b8015610b765780601f10610b4b57610100808354040283529160200191610b76565b820191906000526020600020905b815481529060010190602001808311610b5957829003601f168201915b5050505050905090565b610b92610b8b611264565b838361155e565b5050565b610ba18484846107cc565b610bb5610bac611264565b858585856116cd565b50505050565b6060610bc68261119f565b506000600660008481526020019081526020016000208054610be79061278c565b80601f0160208091040260200160405190810160405280929190818152602001828054610c139061278c565b8015610c605780601f10610c3557610100808354040283529160200191610c60565b820191906000526020600020905b815481529060010190602001808311610c4357829003601f168201915b505050505090506000610c7161187e565b90506000815103610c86578192505050610cc9565b600082511115610cbb578082604051602001610ca3929190612913565b60405160208183030381529060405292505050610cc9565b610cc484611895565b925050505b919050565b6000600560008473ffffffffffffffffffffffffffffffffffffffff1673ffffffffffffffffffffffffffffffffffffffff16815260200190815260200160002060008373ffffffffffffffffffffffffffffffffffffffff1673ffffffffffffffffffffffffffffffffffffffff16815260200190815260200160002060009054906101000a900460ff16905092915050565b610d6a610eca565b600073ffffffffffffffffffffffffffffffffffffffff168173ffffffffffffffffffffffffffffffffffffffff1603610ddc5760006040517f1e4fbdf7000000000000000000000000000000000000000000000000000000008152600401610dd3919061245f565b60405180910390fd5b610de581611498565b50565b60007f80ac58cd000000000000000000000000000000000000000000000000000000007bffffffffffffffffffffffffffffffffffffffffffffffffffffffff1916827bffffffffffffffffffffffffffffffffffffffffffffffffffffffff19161480610eb357507f5b5e139f000000000000000000000000000000000000000000000000000000007bffffffffffffffffffffffffffffffffffffffffffffffffffffffff1916827bffffffffffffffffffffffffffffffffffffffffffffffffffffffff1916145b80610ec35750610ec2826118fe565b5b9050919050565b610ed2611264565b73ffffffffffffffffffffffffffffffffffffffff16610ef0610ac4565b73ffffffffffffffffffffffffffffffffffffffff1614610f4f57610f13611264565b6040517f118cdaa7000000000000000000000000000000000000000000000000000000008152600401610f46919061245f565b60405180910390fd5b565b610f6b828260405180602001604052806000815250611968565b5050565b80600660008481526020019081526020016000209081610f8f9190612ae3565b507ff8e1a15aba9398e019f0b49df1a4fde98ee17ae345cb5f6b5e2c27f5033e8ce782604051610fbf9190612572565b60405180910390a15050565b6110638282604051602401610fe1929190612bb5565b6040516020818303038152906040527f319af333000000000000000000000000000000000000000000000000000000007bffffffffffffffffffffffffffffffffffffffffffffffffffffffff19166020820180517bffffffffffffffffffffffffffffffffffffffffffffffffffffffff838183161783525050505061198c565b5050565b6110ff828260405160240161107d929190612be5565b6040516020818303038152906040527fb60e72cc000000000000000000000000000000000000000000000000000000007bffffffffffffffffffffffffffffffffffffffffffffffffffffffff19166020820180517bffffffffffffffffffffffffffffffffffffffffffffffffffffffff838183161783525050505061198c565b5050565b61119b8282604051602401611119929190612c15565b6040516020818303038152906040527f4b5c4277000000000000000000000000000000000000000000000000000000007bffffffffffffffffffffffffffffffffffffffffffffffffffffffff19166020820180517bffffffffffffffffffffffffffffffffffffffffffffffffffffffff838183161783525050505061198c565b5050565b6000806111ab836119a6565b9050600073ffffffffffffffffffffffffffffffffffffffff168173ffffffffffffffffffffffffffffffffffffffff160361121e57826040517f7e2732890000000000000000000000000000000000000000000000000000000081526004016112159190612572565b60405180910390fd5b80915050919050565b60006004600083815260200190815260200160002060009054906101000a900473ffffffffffffffffffffffffffffffffffffffff169050919050565b600033905090565b61127983838360016119e3565b505050565b60008061128a846119a6565b9050600073ffffffffffffffffffffffffffffffffffffffff168373ffffffffffffffffffffffffffffffffffffffff16146112cc576112cb818486611ba8565b5b600073ffffffffffffffffffffffffffffffffffffffff168173ffffffffffffffffffffffffffffffffffffffff161461135d5761130e6000856000806119e3565b6001600360008373ffffffffffffffffffffffffffffffffffffffff1673ffffffffffffffffffffffffffffffffffffffff168152602001908152602001600020600082825403925050819055505b600073ffffffffffffffffffffffffffffffffffffffff168573ffffffffffffffffffffffffffffffffffffffff16146113e0576001600360008773ffffffffffffffffffffffffffffffffffffffff1673ffffffffffffffffffffffffffffffffffffffff168152602001908152602001600020600082825401925050819055505b846002600086815260200190815260200160002060006101000a81548173ffffffffffffffffffffffffffffffffffffffff021916908373ffffffffffffffffffffffffffffffffffffffff160217905550838573ffffffffffffffffffffffffffffffffffffffff168273ffffffffffffffffffffffffffffffffffffffff167fddf252ad1be2c89b69c2b068fc378daa952ba7f163c4a11628f55a4df523b3ef60405160405180910390a4809150509392505050565b6000600760009054906101000a900473ffffffffffffffffffffffffffffffffffffffff16905081600760006101000a81548173ffffffffffffffffffffffffffffffffffffffff021916908373ffffffffffffffffffffffffffffffffffffffff1602179055508173ffffffffffffffffffffffffffffffffffffffff168173ffffffffffffffffffffffffffffffffffffffff167f8be0079c531659141344cd1fd0a4f28419497f9722a3daafe3b4186f6b6457e060405160405180910390a35050565b600073ffffffffffffffffffffffffffffffffffffffff168273ffffffffffffffffffffffffffffffffffffffff16036115cf57816040517f5b08ba180000000000000000000000000000000000000000000000000000000081526004016115c6919061245f565b60405180910390fd5b80600560008573ffffffffffffffffffffffffffffffffffffffff1673ffffffffffffffffffffffffffffffffffffffff16815260200190815260200160002060008473ffffffffffffffffffffffffffffffffffffffff1673ffffffffffffffffffffffffffffffffffffffff16815260200190815260200160002060006101000a81548160ff0219169083151502179055508173ffffffffffffffffffffffffffffffffffffffff168373ffffffffffffffffffffffffffffffffffffffff167f17307eab39ab6107e8899845ad3d59bd9653f200f220920489ca2b5937696c31836040516116c09190612131565b60405180910390a3505050565b60008373ffffffffffffffffffffffffffffffffffffffff163b1115611877578273ffffffffffffffffffffffffffffffffffffffff1663150b7a02868685856040518563ffffffff1660e01b815260040161172c9493929190612ca1565b6020604051808303816000875af192505050801561176857506040513d601f19601f820116820180604052508101906117659190612d02565b60015b6117ec573d8060008114611798576040519150601f19603f3d011682016040523d82523d6000602084013e61179d565b606091505b5060008151036117e457836040517f64a0ae920000000000000000000000000000000000000000000000000000000081526004016117db919061245f565b60405180910390fd5b805181602001fd5b63150b7a0260e01b7bffffffffffffffffffffffffffffffffffffffffffffffffffffffff1916817bffffffffffffffffffffffffffffffffffffffffffffffffffffffff19161461187557836040517f64a0ae9200000000000000000000000000000000000000000000000000000000815260040161186c919061245f565b60405180910390fd5b505b5050505050565b606060405180602001604052806000815250905090565b60606118a08261119f565b5060006118ab61187e565b905060008151116118cb57604051806020016040528060008152506118f6565b806118d584611c6c565b6040516020016118e6929190612913565b6040516020818303038152906040525b915050919050565b60007f01ffc9a7000000000000000000000000000000000000000000000000000000007bffffffffffffffffffffffffffffffffffffffffffffffffffffffff1916827bffffffffffffffffffffffffffffffffffffffffffffffffffffffff1916149050919050565b6119728383611d3a565b61198761197d611264565b60008585856116cd565b505050565b6119a38161199b611e33611e54565b63ffffffff16565b50565b60006002600083815260200190815260200160002060009054906101000a900473ffffffffffffffffffffffffffffffffffffffff169050919050565b8080611a1c5750600073ffffffffffffffffffffffffffffffffffffffff168273ffffffffffffffffffffffffffffffffffffffff1614155b15611b50576000611a2c8461119f565b9050600073ffffffffffffffffffffffffffffffffffffffff168373ffffffffffffffffffffffffffffffffffffffff1614158015611a9757508273ffffffffffffffffffffffffffffffffffffffff168173ffffffffffffffffffffffffffffffffffffffff1614155b8015611aaa5750611aa88184610cce565b155b15611aec57826040517fa9fbf51f000000000000000000000000000000000000000000000000000000008152600401611ae3919061245f565b60405180910390fd5b8115611b4e57838573ffffffffffffffffffffffffffffffffffffffff168273ffffffffffffffffffffffffffffffffffffffff167f8c5be1e5ebec7d5bd14f71427d1e84f3dd0314c0f7b2291e5b200ac8c7c3b92560405160405180910390a45b505b836004600085815260200190815260200160002060006101000a81548173ffffffffffffffffffffffffffffffffffffffff021916908373ffffffffffffffffffffffffffffffffffffffff16021790555050505050565b611bb3838383611e5f565b611c6757600073ffffffffffffffffffffffffffffffffffffffff168373ffffffffffffffffffffffffffffffffffffffff1603611c2857806040517f7e273289000000000000000000000000000000000000000000000000000000008152600401611c1f9190612572565b60405180910390fd5b81816040517f177e802f000000000000000000000000000000000000000000000000000000008152600401611c5e929190612d2f565b60405180910390fd5b505050565b606060006001611c7b84611f20565b01905060008167ffffffffffffffff811115611c9a57611c99612266565b5b6040519080825280601f01601f191660200182016040528015611ccc5781602001600182028036833780820191505090505b509050600082602001820190505b600115611d2f578080600190039150507f3031323334353637383961626364656600000000000000000000000000000000600a86061a8153600a8581611d2357611d22612d58565b5b04945060008503611cda575b819350505050919050565b600073ffffffffffffffffffffffffffffffffffffffff168273ffffffffffffffffffffffffffffffffffffffff1603611dac5760006040517f64a0ae92000000000000000000000000000000000000000000000000000000008152600401611da3919061245f565b60405180910390fd5b6000611dba8383600061127e565b9050600073ffffffffffffffffffffffffffffffffffffffff168173ffffffffffffffffffffffffffffffffffffffff1614611e2e5760006040517f73c6ac6e000000000000000000000000000000000000000000000000000000008152600401611e25919061245f565b60405180910390fd5b505050565b60006a636f6e736f6c652e6c6f679050600080835160208501845afa505050565b612073819050919050565b60008073ffffffffffffffffffffffffffffffffffffffff168373ffffffffffffffffffffffffffffffffffffffff1614158015611f1757508273ffffffffffffffffffffffffffffffffffffffff168473ffffffffffffffffffffffffffffffffffffffff161480611ed85750611ed78484610cce565b5b80611f1657508273ffffffffffffffffffffffffffffffffffffffff16611efe83611227565b73ffffffffffffffffffffffffffffffffffffffff16145b5b90509392505050565b600080600090507a184f03e93ff9f4daa797ed6e38ed64bf6a1f0100000000000000008310611f7e577a184f03e93ff9f4daa797ed6e38ed64bf6a1f0100000000000000008381611f7457611f73612d58565b5b0492506040810190505b6d04ee2d6d415b85acef81000000008310611fbb576d04ee2d6d415b85acef81000000008381611fb157611fb0612d58565b5b0492506020810190505b662386f26fc100008310611fea57662386f26fc100008381611fe057611fdf612d58565b5b0492506010810190505b6305f5e1008310612013576305f5e100838161200957612008612d58565b5b0492506008810190505b612710831061203857612710838161202e5761202d612d58565b5b0492506004810190505b6064831061205b576064838161205157612050612d58565b5b0492506002810190505b600a831061206a576001810190505b80915050919050565b61207b612d87565b565b6000604051905090565b600080fd5b600080fd5b60007fffffffff0000000000000000000000000000000000000000000000000000000082169050919050565b6120c681612091565b81146120d157600080fd5b50565b6000813590506120e3816120bd565b92915050565b6000602082840312156120ff576120fe612087565b5b600061210d848285016120d4565b91505092915050565b60008115159050919050565b61212b81612116565b82525050565b60006020820190506121466000830184612122565b92915050565b600081519050919050565b600082825260208201905092915050565b60005b8381101561218657808201518184015260208101905061216b565b60008484015250505050565b6000601f19601f8301169050919050565b60006121ae8261214c565b6121b88185612157565b93506121c8818560208601612168565b6121d181612192565b840191505092915050565b600060208201905081810360008301526121f681846121a3565b905092915050565b600073ffffffffffffffffffffffffffffffffffffffff82169050919050565b6000612229826121fe565b9050919050565b6122398161221e565b811461224457600080fd5b50565b60008135905061225681612230565b92915050565b600080fd5b600080fd5b7f4e487b7100000000000000000000000000000000000000000000000000000000600052604160045260246000fd5b61229e82612192565b810181811067ffffffffffffffff821117156122bd576122bc612266565b5b80604052505050565b60006122d061207d565b90506122dc8282612295565b919050565b600067ffffffffffffffff8211156122fc576122fb612266565b5b61230582612192565b9050602081019050919050565b82818337600083830152505050565b600061233461232f846122e1565b6122c6565b9050828152602081018484840111156123505761234f612261565b5b61235b848285612312565b509392505050565b600082601f8301126123785761237761225c565b5b8135612388848260208601612321565b91505092915050565b600080604083850312156123a8576123a7612087565b5b60006123b685828601612247565b925050602083013567ffffffffffffffff8111156123d7576123d661208c565b5b6123e385828601612363565b9150509250929050565b6000819050919050565b612400816123ed565b811461240b57600080fd5b50565b60008135905061241d816123f7565b92915050565b60006020828403121561243957612438612087565b5b60006124478482850161240e565b91505092915050565b6124598161221e565b82525050565b60006020820190506124746000830184612450565b92915050565b6000806040838503121561249157612490612087565b5b600061249f85828601612247565b92505060206124b08582860161240e565b9150509250929050565b6000806000606084860312156124d3576124d2612087565b5b60006124e186828701612247565b93505060206124f286828701612247565b92505060406125038682870161240e565b9150509250925092565b612516816123ed565b82525050565b6000604082019050612531600083018561250d565b61253e6020830184612122565b9392505050565b60006020828403121561255b5761255a612087565b5b600061256984828501612247565b91505092915050565b6000602082019050612587600083018461250d565b92915050565b61259681612116565b81146125a157600080fd5b50565b6000813590506125b38161258d565b92915050565b600080604083850312156125d0576125cf612087565b5b60006125de85828601612247565b92505060206125ef858286016125a4565b9150509250929050565b600067ffffffffffffffff82111561261457612613612266565b5b61261d82612192565b9050602081019050919050565b600061263d612638846125f9565b6122c6565b90508281526020810184848401111561265957612658612261565b5b612664848285612312565b509392505050565b600082601f8301126126815761268061225c565b5b813561269184826020860161262a565b91505092915050565b600080600080608085870312156126b4576126b3612087565b5b60006126c287828801612247565b94505060206126d387828801612247565b93505060406126e48782880161240e565b925050606085013567ffffffffffffffff8111156127055761270461208c565b5b6127118782880161266c565b91505092959194509250565b6000806040838503121561273457612733612087565b5b600061274285828601612247565b925050602061275385828601612247565b9150509250929050565b7f4e487b7100000000000000000000000000000000000000000000000000000000600052602260045260246000fd5b600060028204905060018216806127a457607f821691505b6020821081036127b7576127b661275d565b5b50919050565b7f4e487b7100000000000000000000000000000000000000000000000000000000600052601160045260246000fd5b60006127f7826123ed565b91507fffffffffffffffffffffffffffffffffffffffffffffffffffffffffffffffff8203612829576128286127bd565b5b600182019050919050565b7f436572746966696361746520646f6573206e6f74206578697374000000000000600082015250565b600061286a601a83612157565b915061287582612834565b602082019050919050565b600060208201905081810360008301526128998161285d565b9050919050565b60006060820190506128b56000830186612450565b6128c2602083018561250d565b6128cf6040830184612450565b949350505050565b600081905092915050565b60006128ed8261214c565b6128f781856128d7565b9350612907818560208601612168565b80840191505092915050565b600061291f82856128e2565b915061292b82846128e2565b91508190509392505050565b60008190508160005260206000209050919050565b60006020601f8301049050919050565b600082821b905092915050565b6000600883026129997fffffffffffffffffffffffffffffffffffffffffffffffffffffffffffffffff8261295c565b6129a3868361295c565b95508019841693508086168417925050509392505050565b6000819050919050565b60006129e06129db6129d6846123ed565b6129bb565b6123ed565b9050919050565b6000819050919050565b6129fa836129c5565b612a0e612a06826129e7565b848454612969565b825550505050565b600090565b612a23612a16565b612a2e8184846129f1565b505050565b5b81811015612a5257612a47600082612a1b565b600181019050612a34565b5050565b601f821115612a9757612a6881612937565b612a718461294c565b81016020851015612a80578190505b612a94612a8c8561294c565b830182612a33565b50505b505050565b600082821c905092915050565b6000612aba60001984600802612a9c565b1980831691505092915050565b6000612ad38383612aa9565b9150826002028217905092915050565b612aec8261214c565b67ffffffffffffffff811115612b0557612b04612266565b5b612b0f825461278c565b612b1a828285612a56565b600060209050601f831160018114612b4d5760008415612b3b578287015190505b612b458582612ac7565b865550612bad565b601f198416612b5b86612937565b60005b82811015612b8357848901518255600182019150602085019450602081019050612b5e565b86831015612ba05784890151612b9c601f891682612aa9565b8355505b6001600288020188555050505b505050505050565b60006040820190508181036000830152612bcf81856121a3565b9050612bde6020830184612450565b9392505050565b60006040820190508181036000830152612bff81856121a3565b9050612c0e602083018461250d565b9392505050565b60006040820190508181036000830152612c2f81856121a3565b90508181036020830152612c4381846121a3565b90509392505050565b600081519050919050565b600082825260208201905092915050565b6000612c7382612c4c565b612c7d8185612c57565b9350612c8d818560208601612168565b612c9681612192565b840191505092915050565b6000608082019050612cb66000830187612450565b612cc36020830186612450565b612cd0604083018561250d565b8181036060830152612ce28184612c68565b905095945050505050565b600081519050612cfc816120bd565b92915050565b600060208284031215612d1857612d17612087565b5b6000612d2684828501612ced565b91505092915050565b6000604082019050612d446000830185612450565b612d51602083018461250d565b9392505050565b7f4e487b7100000000000000000000000000000000000000000000000000000000600052601260045260246000fd5b7f4e487b7100000000000000000000000000000000000000000000000000000000600052605160045260246000fdfea26469706673582212208e7b4e93901d41749654adc43e0ce4aa1aa842f0dc913020150000cebe615c0b64736f6c634300081c0033",
  "linkReferences": {},
  "deployedLinkReferences": {}
}